{
  "_format": "hh-sol-artifact-1",
  "contractName": "MoonbaseNFT",
  "sourceName": "contracts/MoonbaseNFT.sol",
  "abi": [
    {
      "inputs": [],
      "stateMutability": "nonpayable",
      "type": "constructor"
    },
    {
      "anonymous": false,
      "inputs": [
        {
          "indexed": true,
          "internalType": "address",
          "name": "owner",
          "type": "address"
        },
        {
          "indexed": true,
          "internalType": "address",
          "name": "approved",
          "type": "address"
        },
        {
          "indexed": true,
          "internalType": "uint256",
          "name": "tokenId",
          "type": "uint256"
        }
      ],
      "name": "Approval",
      "type": "event"
    },
    {
      "anonymous": false,
      "inputs": [
        {
          "indexed": true,
          "internalType": "address",
          "name": "owner",
          "type": "address"
        },
        {
          "indexed": true,
          "internalType": "address",
          "name": "operator",
          "type": "address"
        },
        {
          "indexed": false,
          "internalType": "bool",
          "name": "approved",
          "type": "bool"
        }
      ],
      "name": "ApprovalForAll",
      "type": "event"
    },
    {
      "anonymous": false,
      "inputs": [
        {
          "indexed": true,
          "internalType": "address",
          "name": "previousOwner",
          "type": "address"
        },
        {
          "indexed": true,
          "internalType": "address",
          "name": "newOwner",
          "type": "address"
        }
      ],
      "name": "OwnershipTransferred",
      "type": "event"
    },
    {
      "anonymous": false,
      "inputs": [
        {
          "indexed": true,
          "internalType": "address",
          "name": "from",
          "type": "address"
        },
        {
          "indexed": true,
          "internalType": "address",
          "name": "to",
          "type": "address"
        },
        {
          "indexed": true,
          "internalType": "uint256",
          "name": "tokenId",
          "type": "uint256"
        }
      ],
      "name": "Transfer",
      "type": "event"
    },
    {
      "inputs": [
        {
          "internalType": "address",
          "name": "to",
          "type": "address"
        },
        {
          "internalType": "uint256",
          "name": "tokenId",
          "type": "uint256"
        }
      ],
      "name": "approve",
      "outputs": [],
      "stateMutability": "nonpayable",
      "type": "function"
    },
    {
      "inputs": [
        {
          "internalType": "address",
          "name": "owner",
          "type": "address"
        }
      ],
      "name": "balanceOf",
      "outputs": [
        {
          "internalType": "uint256",
          "name": "",
          "type": "uint256"
        }
      ],
      "stateMutability": "view",
      "type": "function"
    },
    {
      "inputs": [
        {
          "internalType": "uint256",
          "name": "tokenId",
          "type": "uint256"
        }
      ],
      "name": "getApproved",
      "outputs": [
        {
          "internalType": "address",
          "name": "",
          "type": "address"
        }
      ],
      "stateMutability": "view",
      "type": "function"
    },
    {
      "inputs": [
        {
          "internalType": "address",
          "name": "owner",
          "type": "address"
        },
        {
          "internalType": "address",
          "name": "operator",
          "type": "address"
        }
      ],
      "name": "isApprovedForAll",
      "outputs": [
        {
          "internalType": "bool",
          "name": "",
          "type": "bool"
        }
      ],
      "stateMutability": "view",
      "type": "function"
    },
    {
      "inputs": [
        {
          "internalType": "uint256",
          "name": "_userId",
          "type": "uint256"
        }
      ],
      "name": "mintMoonbaseNFT",
      "outputs": [],
      "stateMutability": "nonpayable",
      "type": "function"
    },
    {
      "inputs": [],
      "name": "name",
      "outputs": [
        {
          "internalType": "string",
          "name": "",
          "type": "string"
        }
      ],
      "stateMutability": "view",
      "type": "function"
    },
    {
      "inputs": [],
      "name": "owner",
      "outputs": [
        {
          "internalType": "address",
          "name": "",
          "type": "address"
        }
      ],
      "stateMutability": "view",
      "type": "function"
    },
    {
      "inputs": [
        {
          "internalType": "uint256",
          "name": "tokenId",
          "type": "uint256"
        }
      ],
      "name": "ownerOf",
      "outputs": [
        {
          "internalType": "address",
          "name": "",
          "type": "address"
        }
      ],
      "stateMutability": "view",
      "type": "function"
    },
    {
      "inputs": [],
      "name": "renounceOwnership",
      "outputs": [],
      "stateMutability": "nonpayable",
      "type": "function"
    },
    {
      "inputs": [
        {
          "internalType": "address",
          "name": "to",
          "type": "address"
        },
        {
          "internalType": "uint256",
          "name": "tokenId",
          "type": "uint256"
        }
      ],
      "name": "safeMint",
      "outputs": [],
      "stateMutability": "nonpayable",
      "type": "function"
    },
    {
      "inputs": [
        {
          "internalType": "address",
          "name": "from",
          "type": "address"
        },
        {
          "internalType": "address",
          "name": "to",
          "type": "address"
        },
        {
          "internalType": "uint256",
          "name": "tokenId",
          "type": "uint256"
        }
      ],
      "name": "safeTransferFrom",
      "outputs": [],
      "stateMutability": "nonpayable",
      "type": "function"
    },
    {
      "inputs": [
        {
          "internalType": "address",
          "name": "from",
          "type": "address"
        },
        {
          "internalType": "address",
          "name": "to",
          "type": "address"
        },
        {
          "internalType": "uint256",
          "name": "tokenId",
          "type": "uint256"
        },
        {
          "internalType": "bytes",
          "name": "data",
          "type": "bytes"
        }
      ],
      "name": "safeTransferFrom",
      "outputs": [],
      "stateMutability": "nonpayable",
      "type": "function"
    },
    {
      "inputs": [
        {
          "internalType": "address",
          "name": "operator",
          "type": "address"
        },
        {
          "internalType": "bool",
          "name": "approved",
          "type": "bool"
        }
      ],
      "name": "setApprovalForAll",
      "outputs": [],
      "stateMutability": "nonpayable",
      "type": "function"
    },
    {
      "inputs": [
        {
          "internalType": "bytes4",
          "name": "interfaceId",
          "type": "bytes4"
        }
      ],
      "name": "supportsInterface",
      "outputs": [
        {
          "internalType": "bool",
          "name": "",
          "type": "bool"
        }
      ],
      "stateMutability": "view",
      "type": "function"
    },
    {
      "inputs": [],
      "name": "symbol",
      "outputs": [
        {
          "internalType": "string",
          "name": "",
          "type": "string"
        }
      ],
      "stateMutability": "view",
      "type": "function"
    },
    {
      "inputs": [
        {
          "internalType": "uint256",
          "name": "index",
          "type": "uint256"
        }
      ],
      "name": "tokenByIndex",
      "outputs": [
        {
          "internalType": "uint256",
          "name": "",
          "type": "uint256"
        }
      ],
      "stateMutability": "view",
      "type": "function"
    },
    {
      "inputs": [
        {
          "internalType": "address",
          "name": "owner",
          "type": "address"
        },
        {
          "internalType": "uint256",
          "name": "index",
          "type": "uint256"
        }
      ],
      "name": "tokenOfOwnerByIndex",
      "outputs": [
        {
          "internalType": "uint256",
          "name": "",
          "type": "uint256"
        }
      ],
      "stateMutability": "view",
      "type": "function"
    },
    {
      "inputs": [
        {
          "internalType": "uint256",
          "name": "tokenId",
          "type": "uint256"
        }
      ],
      "name": "tokenURI",
      "outputs": [
        {
          "internalType": "string",
          "name": "",
          "type": "string"
        }
      ],
      "stateMutability": "view",
      "type": "function"
    },
    {
      "inputs": [],
      "name": "totalSupply",
      "outputs": [
        {
          "internalType": "uint256",
          "name": "",
          "type": "uint256"
        }
      ],
      "stateMutability": "view",
      "type": "function"
    },
    {
      "inputs": [
        {
          "internalType": "address",
          "name": "from",
          "type": "address"
        },
        {
          "internalType": "address",
          "name": "to",
          "type": "address"
        },
        {
          "internalType": "uint256",
          "name": "tokenId",
          "type": "uint256"
        }
      ],
      "name": "transferFrom",
      "outputs": [],
      "stateMutability": "nonpayable",
      "type": "function"
    },
    {
      "inputs": [
        {
          "internalType": "address",
          "name": "newOwner",
          "type": "address"
        }
      ],
      "name": "transferOwnership",
      "outputs": [],
      "stateMutability": "nonpayable",
      "type": "function"
    }
  ],
  "bytecode": "0x60806040523480156200001157600080fd5b506040518060400160405280601881526020017f4d6f6f6e42617365206d656d62657273686970206361726400000000000000008152506040518060400160405280600881526020017f4d6f6f6e42617365000000000000000000000000000000000000000000000000815250816000908051906020019062000096929190620001a6565b508060019080519060200190620000af929190620001a6565b505050620000d2620000c6620000d860201b60201c565b620000e060201b60201c565b620002bb565b600033905090565b6000600b60009054906101000a900473ffffffffffffffffffffffffffffffffffffffff16905081600b60006101000a81548173ffffffffffffffffffffffffffffffffffffffff021916908373ffffffffffffffffffffffffffffffffffffffff1602179055508173ffffffffffffffffffffffffffffffffffffffff168173ffffffffffffffffffffffffffffffffffffffff167f8be0079c531659141344cd1fd0a4f28419497f9722a3daafe3b4186f6b6457e060405160405180910390a35050565b828054620001b49062000256565b90600052602060002090601f016020900481019282620001d8576000855562000224565b82601f10620001f357805160ff191683800117855562000224565b8280016001018555821562000224579182015b828111156200022357825182559160200191906001019062000206565b5b50905062000233919062000237565b5090565b5b808211156200025257600081600090555060010162000238565b5090565b600060028204905060018216806200026f57607f821691505b602082108114156200028657620002856200028c565b5b50919050565b7f4e487b7100000000000000000000000000000000000000000000000000000000600052602260045260246000fd5b61374080620002cb6000396000f3fe608060405234801561001057600080fd5b50600436106101375760003560e01c80636352211e116100b8578063a14481941161007c578063a14481941461034e578063a22cb4651461036a578063b88d4fde14610386578063c87b56dd146103a2578063e985e9c5146103d2578063f2fde38b1461040257610137565b80636352211e146102a857806370a08231146102d8578063715018a6146103085780638da5cb5b1461031257806395d89b411461033057610137565b806323b872dd116100ff57806323b872dd146101f45780632f745c5914610210578063427b02fa1461024057806342842e0e1461025c5780634f6ccce71461027857610137565b806301ffc9a71461013c57806306fdde031461016c578063081812fc1461018a578063095ea7b3146101ba57806318160ddd146101d6575b600080fd5b61015660048036038101906101519190612717565b61041e565b6040516101639190612b7d565b60405180910390f35b610174610430565b6040516101819190612b98565b60405180910390f35b6101a4600480360381019061019f9190612769565b6104c2565b6040516101b19190612b16565b60405180910390f35b6101d460048036038101906101cf91906126db565b610508565b005b6101de610620565b6040516101eb9190612e2f565b60405180910390f35b61020e600480360381019061020991906125d5565b61062d565b005b61022a600480360381019061022591906126db565b61068d565b6040516102379190612e2f565b60405180910390f35b61025a60048036038101906102559190612769565b610732565b005b610276600480360381019061027191906125d5565b61081e565b005b610292600480360381019061028d9190612769565b61083e565b60405161029f9190612e2f565b60405180910390f35b6102c260048036038101906102bd9190612769565b6108d5565b6040516102cf9190612b16565b60405180910390f35b6102f260048036038101906102ed9190612570565b610987565b6040516102ff9190612e2f565b60405180910390f35b610310610a3f565b005b61031a610a53565b6040516103279190612b16565b60405180910390f35b610338610a7d565b6040516103459190612b98565b60405180910390f35b610368600480360381019061036391906126db565b610b0f565b005b610384600480360381019061037f919061269f565b610b25565b005b6103a0600480360381019061039b9190612624565b610b3b565b005b6103bc60048036038101906103b79190612769565b610b9d565b6040516103c99190612b98565b60405180910390f35b6103ec60048036038101906103e79190612599565b610baf565b6040516103f99190612b7d565b60405180910390f35b61041c60048036038101906104179190612570565b610c43565b005b600061042982610cc7565b9050919050565b60606000805461043f90613054565b80601f016020809104026020016040519081016040528092919081815260200182805461046b90613054565b80156104b85780601f1061048d576101008083540402835291602001916104b8565b820191906000526020600020905b81548152906001019060200180831161049b57829003601f168201915b5050505050905090565b60006104cd82610d41565b6004600083815260200190815260200160002060009054906101000a900473ffffffffffffffffffffffffffffffffffffffff169050919050565b6000610513826108d5565b90508073ffffffffffffffffffffffffffffffffffffffff168373ffffffffffffffffffffffffffffffffffffffff161415610584576040517f08c379a000000000000000000000000000000000000000000000000000000000815260040161057b90612dcf565b60405180910390fd5b8073ffffffffffffffffffffffffffffffffffffffff166105a3610d8c565b73ffffffffffffffffffffffffffffffffffffffff1614806105d257506105d1816105cc610d8c565b610baf565b5b610611576040517f08c379a000000000000000000000000000000000000000000000000000000000815260040161060890612d4f565b60405180910390fd5b61061b8383610d94565b505050565b6000600880549050905090565b61063e610638610d8c565b82610e4d565b61067d576040517f08c379a000000000000000000000000000000000000000000000000000000000815260040161067490612e0f565b60405180910390fd5b610688838383610ee2565b505050565b600061069883610987565b82106106d9576040517f08c379a00000000000000000000000000000000000000000000000000000000081526004016106d090612c2f565b60405180910390fd5b600660008473ffffffffffffffffffffffffffffffffffffffff1673ffffffffffffffffffffffffffffffffffffffff168152602001908152602001600020600083815260200190815260200160002054905092915050565b600061073e600c611149565b905061074a3382611157565b60008260405160200161075d9190612af0565b60405160208183030381529060405290506107ad826040518060400160405280601d81526020017f68747470733a2f2f6a736f6e6b65657065722e636f6d2f622f49454a47000000815250611175565b6107d06040518060600160405280602581526020016136e66025913983336111e9565b61080f6040518060400160405280600981526020017f4f776e65726f663a20000000000000000000000000000000000000000000000081525082611288565b610819600c611324565b505050565b61083983838360405180602001604052806000815250610b3b565b505050565b6000610848610620565b8210610889576040517f08c379a000000000000000000000000000000000000000000000000000000000815260040161088090612def565b60405180910390fd5b600882815481106108c3577f4e487b7100000000000000000000000000000000000000000000000000000000600052603260045260246000fd5b90600052602060002001549050919050565b6000806002600084815260200190815260200160002060009054906101000a900473ffffffffffffffffffffffffffffffffffffffff169050600073ffffffffffffffffffffffffffffffffffffffff168173ffffffffffffffffffffffffffffffffffffffff16141561097e576040517f08c379a000000000000000000000000000000000000000000000000000000000815260040161097590612daf565b60405180910390fd5b80915050919050565b60008073ffffffffffffffffffffffffffffffffffffffff168273ffffffffffffffffffffffffffffffffffffffff1614156109f8576040517f08c379a00000000000000000000000000000000000000000000000000000000081526004016109ef90612d0f565b60405180910390fd5b600360008373ffffffffffffffffffffffffffffffffffffffff1673ffffffffffffffffffffffffffffffffffffffff168152602001908152602001600020549050919050565b610a4761133a565b610a5160006113b8565b565b6000600b60009054906101000a900473ffffffffffffffffffffffffffffffffffffffff16905090565b606060018054610a8c90613054565b80601f0160208091040260200160405190810160405280929190818152602001828054610ab890613054565b8015610b055780601f10610ada57610100808354040283529160200191610b05565b820191906000526020600020905b815481529060010190602001808311610ae857829003601f168201915b5050505050905090565b610b1761133a565b610b218282611157565b5050565b610b37610b30610d8c565b838361147e565b5050565b610b4c610b46610d8c565b83610e4d565b610b8b576040517f08c379a0000000000000000000000000000000000000000000000000000000008152600401610b8290612e0f565b60405180910390fd5b610b97848484846115eb565b50505050565b6060610ba882611647565b9050919050565b6000600560008473ffffffffffffffffffffffffffffffffffffffff1673ffffffffffffffffffffffffffffffffffffffff16815260200190815260200160002060008373ffffffffffffffffffffffffffffffffffffffff1673ffffffffffffffffffffffffffffffffffffffff16815260200190815260200160002060009054906101000a900460ff16905092915050565b610c4b61133a565b600073ffffffffffffffffffffffffffffffffffffffff168173ffffffffffffffffffffffffffffffffffffffff161415610cbb576040517f08c379a0000000000000000000000000000000000000000000000000000000008152600401610cb290612c6f565b60405180910390fd5b610cc4816113b8565b50565b60007f780e9d63000000000000000000000000000000000000000000000000000000007bffffffffffffffffffffffffffffffffffffffffffffffffffffffff1916827bffffffffffffffffffffffffffffffffffffffffffffffffffffffff19161480610d3a5750610d398261175a565b5b9050919050565b610d4a8161183c565b610d89576040517f08c379a0000000000000000000000000000000000000000000000000000000008152600401610d8090612daf565b60405180910390fd5b50565b600033905090565b816004600083815260200190815260200160002060006101000a81548173ffffffffffffffffffffffffffffffffffffffff021916908373ffffffffffffffffffffffffffffffffffffffff160217905550808273ffffffffffffffffffffffffffffffffffffffff16610e07836108d5565b73ffffffffffffffffffffffffffffffffffffffff167f8c5be1e5ebec7d5bd14f71427d1e84f3dd0314c0f7b2291e5b200ac8c7c3b92560405160405180910390a45050565b600080610e59836108d5565b90508073ffffffffffffffffffffffffffffffffffffffff168473ffffffffffffffffffffffffffffffffffffffff161480610e9b5750610e9a8185610baf565b5b80610ed957508373ffffffffffffffffffffffffffffffffffffffff16610ec1846104c2565b73ffffffffffffffffffffffffffffffffffffffff16145b91505092915050565b8273ffffffffffffffffffffffffffffffffffffffff16610f02826108d5565b73ffffffffffffffffffffffffffffffffffffffff1614610f58576040517f08c379a0000000000000000000000000000000000000000000000000000000008152600401610f4f90612c8f565b60405180910390fd5b600073ffffffffffffffffffffffffffffffffffffffff168273ffffffffffffffffffffffffffffffffffffffff161415610fc8576040517f08c379a0000000000000000000000000000000000000000000000000000000008152600401610fbf90612ccf565b60405180910390fd5b610fd38383836118a8565b610fde600082610d94565b6001600360008573ffffffffffffffffffffffffffffffffffffffff1673ffffffffffffffffffffffffffffffffffffffff168152602001908152602001600020600082825461102e9190612f6a565b925050819055506001600360008473ffffffffffffffffffffffffffffffffffffffff1673ffffffffffffffffffffffffffffffffffffffff16815260200190815260200160002060008282546110859190612ee3565b92505081905550816002600083815260200190815260200160002060006101000a81548173ffffffffffffffffffffffffffffffffffffffff021916908373ffffffffffffffffffffffffffffffffffffffff160217905550808273ffffffffffffffffffffffffffffffffffffffff168473ffffffffffffffffffffffffffffffffffffffff167fddf252ad1be2c89b69c2b068fc378daa952ba7f163c4a11628f55a4df523b3ef60405160405180910390a46111448383836118b8565b505050565b600081600001549050919050565b6111718282604051806020016040528060008152506118bd565b5050565b61117e8261183c565b6111bd576040517f08c379a00000000000000000000000000000000000000000000000000000000081526004016111b490612d2f565b60405180910390fd5b80600a600084815260200190815260200160002090805190602001906111e49291906123fc565b505050565b61128383838360405160240161120193929190612bf1565b6040516020818303038152906040527fe3849f79000000000000000000000000000000000000000000000000000000007bffffffffffffffffffffffffffffffffffffffffffffffffffffffff19166020820180517bffffffffffffffffffffffffffffffffffffffffffffffffffffffff8381831617835250505050611918565b505050565b611320828260405160240161129e929190612bba565b6040516020818303038152906040527f4b5c4277000000000000000000000000000000000000000000000000000000007bffffffffffffffffffffffffffffffffffffffffffffffffffffffff19166020820180517bffffffffffffffffffffffffffffffffffffffffffffffffffffffff8381831617835250505050611918565b5050565b6001816000016000828254019250508190555050565b611342610d8c565b73ffffffffffffffffffffffffffffffffffffffff16611360610a53565b73ffffffffffffffffffffffffffffffffffffffff16146113b6576040517f08c379a00000000000000000000000000000000000000000000000000000000081526004016113ad90612d8f565b60405180910390fd5b565b6000600b60009054906101000a900473ffffffffffffffffffffffffffffffffffffffff16905081600b60006101000a81548173ffffffffffffffffffffffffffffffffffffffff021916908373ffffffffffffffffffffffffffffffffffffffff1602179055508173ffffffffffffffffffffffffffffffffffffffff168173ffffffffffffffffffffffffffffffffffffffff167f8be0079c531659141344cd1fd0a4f28419497f9722a3daafe3b4186f6b6457e060405160405180910390a35050565b8173ffffffffffffffffffffffffffffffffffffffff168373ffffffffffffffffffffffffffffffffffffffff1614156114ed576040517f08c379a00000000000000000000000000000000000000000000000000000000081526004016114e490612cef565b60405180910390fd5b80600560008573ffffffffffffffffffffffffffffffffffffffff1673ffffffffffffffffffffffffffffffffffffffff16815260200190815260200160002060008473ffffffffffffffffffffffffffffffffffffffff1673ffffffffffffffffffffffffffffffffffffffff16815260200190815260200160002060006101000a81548160ff0219169083151502179055508173ffffffffffffffffffffffffffffffffffffffff168373ffffffffffffffffffffffffffffffffffffffff167f17307eab39ab6107e8899845ad3d59bd9653f200f220920489ca2b5937696c31836040516115de9190612b7d565b60405180910390a3505050565b6115f6848484610ee2565b61160284848484611941565b611641576040517f08c379a000000000000000000000000000000000000000000000000000000000815260040161163890612c4f565b60405180910390fd5b50505050565b606061165282610d41565b6000600a6000848152602001908152602001600020805461167290613054565b80601f016020809104026020016040519081016040528092919081815260200182805461169e90613054565b80156116eb5780601f106116c0576101008083540402835291602001916116eb565b820191906000526020600020905b8154815290600101906020018083116116ce57829003601f168201915b5050505050905060006116fc611ad8565b9050600081511415611712578192505050611755565b60008251111561174757808260405160200161172f929190612acc565b60405160208183030381529060405292505050611755565b61175084611aef565b925050505b919050565b60007f80ac58cd000000000000000000000000000000000000000000000000000000007bffffffffffffffffffffffffffffffffffffffffffffffffffffffff1916827bffffffffffffffffffffffffffffffffffffffffffffffffffffffff1916148061182557507f5b5e139f000000000000000000000000000000000000000000000000000000007bffffffffffffffffffffffffffffffffffffffffffffffffffffffff1916827bffffffffffffffffffffffffffffffffffffffffffffffffffffffff1916145b80611835575061183482611b57565b5b9050919050565b60008073ffffffffffffffffffffffffffffffffffffffff166002600084815260200190815260200160002060009054906101000a900473ffffffffffffffffffffffffffffffffffffffff1673ffffffffffffffffffffffffffffffffffffffff1614159050919050565b6118b3838383611bc1565b505050565b505050565b6118c78383611cd5565b6118d46000848484611941565b611913576040517f08c379a000000000000000000000000000000000000000000000000000000000815260040161190a90612c4f565b60405180910390fd5b505050565b60008151905060006a636f6e736f6c652e6c6f679050602083016000808483855afa5050505050565b60006119628473ffffffffffffffffffffffffffffffffffffffff16611eaf565b15611acb578373ffffffffffffffffffffffffffffffffffffffff1663150b7a0261198b610d8c565b8786866040518563ffffffff1660e01b81526004016119ad9493929190612b31565b602060405180830381600087803b1580156119c757600080fd5b505af19250505080156119f857506040513d601f19601f820116820180604052508101906119f59190612740565b60015b611a7b573d8060008114611a28576040519150601f19603f3d011682016040523d82523d6000602084013e611a2d565b606091505b50600081511415611a73576040517f08c379a0000000000000000000000000000000000000000000000000000000008152600401611a6a90612c4f565b60405180910390fd5b805181602001fd5b63150b7a0260e01b7bffffffffffffffffffffffffffffffffffffffffffffffffffffffff1916817bffffffffffffffffffffffffffffffffffffffffffffffffffffffff191614915050611ad0565b600190505b949350505050565b606060405180602001604052806000815250905090565b6060611afa82610d41565b6000611b04611ad8565b90506000815111611b245760405180602001604052806000815250611b4f565b80611b2e84611ed2565b604051602001611b3f929190612acc565b6040516020818303038152906040525b915050919050565b60007f01ffc9a7000000000000000000000000000000000000000000000000000000007bffffffffffffffffffffffffffffffffffffffffffffffffffffffff1916827bffffffffffffffffffffffffffffffffffffffffffffffffffffffff1916149050919050565b611bcc83838361207f565b600073ffffffffffffffffffffffffffffffffffffffff168373ffffffffffffffffffffffffffffffffffffffff161415611c0f57611c0a81612084565b611c4e565b8173ffffffffffffffffffffffffffffffffffffffff168373ffffffffffffffffffffffffffffffffffffffff1614611c4d57611c4c83826120cd565b5b5b600073ffffffffffffffffffffffffffffffffffffffff168273ffffffffffffffffffffffffffffffffffffffff161415611c9157611c8c8161223a565b611cd0565b8273ffffffffffffffffffffffffffffffffffffffff168273ffffffffffffffffffffffffffffffffffffffff1614611ccf57611cce828261237d565b5b5b505050565b600073ffffffffffffffffffffffffffffffffffffffff168273ffffffffffffffffffffffffffffffffffffffff161415611d45576040517f08c379a0000000000000000000000000000000000000000000000000000000008152600401611d3c90612d6f565b60405180910390fd5b611d4e8161183c565b15611d8e576040517f08c379a0000000000000000000000000000000000000000000000000000000008152600401611d8590612caf565b60405180910390fd5b611d9a600083836118a8565b6001600360008473ffffffffffffffffffffffffffffffffffffffff1673ffffffffffffffffffffffffffffffffffffffff1681526020019081526020016000206000828254611dea9190612ee3565b92505081905550816002600083815260200190815260200160002060006101000a81548173ffffffffffffffffffffffffffffffffffffffff021916908373ffffffffffffffffffffffffffffffffffffffff160217905550808273ffffffffffffffffffffffffffffffffffffffff16600073ffffffffffffffffffffffffffffffffffffffff167fddf252ad1be2c89b69c2b068fc378daa952ba7f163c4a11628f55a4df523b3ef60405160405180910390a4611eab600083836118b8565b5050565b6000808273ffffffffffffffffffffffffffffffffffffffff163b119050919050565b60606000821415611f1a576040518060400160405280600181526020017f3000000000000000000000000000000000000000000000000000000000000000815250905061207a565b600082905060005b60008214611f4c578080611f35906130b7565b915050600a82611f459190612f39565b9150611f22565b60008167ffffffffffffffff811115611f8e577f4e487b7100000000000000000000000000000000000000000000000000000000600052604160045260246000fd5b6040519080825280601f01601f191660200182016040528015611fc05781602001600182028036833780820191505090505b5090505b6000851461207357600182611fd99190612f6a565b9150600a85611fe8919061310a565b6030611ff49190612ee3565b60f81b818381518110612030577f4e487b7100000000000000000000000000000000000000000000000000000000600052603260045260246000fd5b60200101907effffffffffffffffffffffffffffffffffffffffffffffffffffffffffffff1916908160001a905350600a8561206c9190612f39565b9450611fc4565b8093505050505b919050565b505050565b6008805490506009600083815260200190815260200160002081905550600881908060018154018082558091505060019003906000526020600020016000909190919091505550565b600060016120da84610987565b6120e49190612f6a565b90506000600760008481526020019081526020016000205490508181146121c9576000600660008673ffffffffffffffffffffffffffffffffffffffff1673ffffffffffffffffffffffffffffffffffffffff168152602001908152602001600020600084815260200190815260200160002054905080600660008773ffffffffffffffffffffffffffffffffffffffff1673ffffffffffffffffffffffffffffffffffffffff168152602001908152602001600020600084815260200190815260200160002081905550816007600083815260200190815260200160002081905550505b6007600084815260200190815260200160002060009055600660008573ffffffffffffffffffffffffffffffffffffffff1673ffffffffffffffffffffffffffffffffffffffff16815260200190815260200160002060008381526020019081526020016000206000905550505050565b6000600160088054905061224e9190612f6a565b90506000600960008481526020019081526020016000205490506000600883815481106122a4577f4e487b7100000000000000000000000000000000000000000000000000000000600052603260045260246000fd5b9060005260206000200154905080600883815481106122ec577f4e487b7100000000000000000000000000000000000000000000000000000000600052603260045260246000fd5b906000526020600020018190555081600960008381526020019081526020016000208190555060096000858152602001908152602001600020600090556008805480612361577f4e487b7100000000000000000000000000000000000000000000000000000000600052603160045260246000fd5b6001900381819060005260206000200160009055905550505050565b600061238883610987565b905081600660008573ffffffffffffffffffffffffffffffffffffffff1673ffffffffffffffffffffffffffffffffffffffff168152602001908152602001600020600083815260200190815260200160002081905550806007600084815260200190815260200160002081905550505050565b82805461240890613054565b90600052602060002090601f01602090048101928261242a5760008555612471565b82601f1061244357805160ff1916838001178555612471565b82800160010185558215612471579182015b82811115612470578251825591602001919060010190612455565b5b50905061247e9190612482565b5090565b5b8082111561249b576000816000905550600101612483565b5090565b60006124b26124ad84612e6f565b612e4a565b9050828152602081018484840111156124ca57600080fd5b6124d5848285613012565b509392505050565b6000813590506124ec81613689565b92915050565b600081359050612501816136a0565b92915050565b600081359050612516816136b7565b92915050565b60008151905061252b816136b7565b92915050565b600082601f83011261254257600080fd5b813561255284826020860161249f565b91505092915050565b60008135905061256a816136ce565b92915050565b60006020828403121561258257600080fd5b6000612590848285016124dd565b91505092915050565b600080604083850312156125ac57600080fd5b60006125ba858286016124dd565b92505060206125cb858286016124dd565b9150509250929050565b6000806000606084860312156125ea57600080fd5b60006125f8868287016124dd565b9350506020612609868287016124dd565b925050604061261a8682870161255b565b9150509250925092565b6000806000806080858703121561263a57600080fd5b6000612648878288016124dd565b9450506020612659878288016124dd565b935050604061266a8782880161255b565b925050606085013567ffffffffffffffff81111561268757600080fd5b61269387828801612531565b91505092959194509250565b600080604083850312156126b257600080fd5b60006126c0858286016124dd565b92505060206126d1858286016124f2565b9150509250929050565b600080604083850312156126ee57600080fd5b60006126fc858286016124dd565b925050602061270d8582860161255b565b9150509250929050565b60006020828403121561272957600080fd5b600061273784828501612507565b91505092915050565b60006020828403121561275257600080fd5b60006127608482850161251c565b91505092915050565b60006020828403121561277b57600080fd5b60006127898482850161255b565b91505092915050565b61279b81612f9e565b82525050565b6127aa81612fb0565b82525050565b60006127bb82612ea0565b6127c58185612eb6565b93506127d5818560208601613021565b6127de816131f7565b840191505092915050565b60006127f482612eab565b6127fe8185612ec7565b935061280e818560208601613021565b612817816131f7565b840191505092915050565b600061282d82612eab565b6128378185612ed8565b9350612847818560208601613021565b80840191505092915050565b6000612860602b83612ec7565b915061286b82613208565b604082019050919050565b6000612883603283612ec7565b915061288e82613257565b604082019050919050565b60006128a6602683612ec7565b91506128b1826132a6565b604082019050919050565b60006128c9602583612ec7565b91506128d4826132f5565b604082019050919050565b60006128ec601c83612ec7565b91506128f782613344565b602082019050919050565b600061290f602583612ed8565b915061291a8261336d565b602582019050919050565b6000612932602483612ec7565b915061293d826133bc565b604082019050919050565b6000612955601983612ec7565b91506129608261340b565b602082019050919050565b6000612978602983612ec7565b915061298382613434565b604082019050919050565b600061299b602e83612ec7565b91506129a682613483565b604082019050919050565b60006129be603e83612ec7565b91506129c9826134d2565b604082019050919050565b60006129e1602083612ec7565b91506129ec82613521565b602082019050919050565b6000612a04602083612ec7565b9150612a0f8261354a565b602082019050919050565b6000612a27601883612ec7565b9150612a3282613573565b602082019050919050565b6000612a4a602183612ec7565b9150612a558261359c565b604082019050919050565b6000612a6d602c83612ec7565b9150612a78826135eb565b604082019050919050565b6000612a90602e83612ec7565b9150612a9b8261363a565b604082019050919050565b612aaf81613008565b82525050565b612ac6612ac182613008565b613100565b82525050565b6000612ad88285612822565b9150612ae48284612822565b91508190509392505050565b6000612afb82612902565b9150612b078284612ab5565b60208201915081905092915050565b6000602082019050612b2b6000830184612792565b92915050565b6000608082019050612b466000830187612792565b612b536020830186612792565b612b606040830185612aa6565b8181036060830152612b7281846127b0565b905095945050505050565b6000602082019050612b9260008301846127a1565b92915050565b60006020820190508181036000830152612bb281846127e9565b905092915050565b60006040820190508181036000830152612bd481856127e9565b90508181036020830152612be881846127e9565b90509392505050565b60006060820190508181036000830152612c0b81866127e9565b9050612c1a6020830185612aa6565b612c276040830184612792565b949350505050565b60006020820190508181036000830152612c4881612853565b9050919050565b60006020820190508181036000830152612c6881612876565b9050919050565b60006020820190508181036000830152612c8881612899565b9050919050565b60006020820190508181036000830152612ca8816128bc565b9050919050565b60006020820190508181036000830152612cc8816128df565b9050919050565b60006020820190508181036000830152612ce881612925565b9050919050565b60006020820190508181036000830152612d0881612948565b9050919050565b60006020820190508181036000830152612d288161296b565b9050919050565b60006020820190508181036000830152612d488161298e565b9050919050565b60006020820190508181036000830152612d68816129b1565b9050919050565b60006020820190508181036000830152612d88816129d4565b9050919050565b60006020820190508181036000830152612da8816129f7565b9050919050565b60006020820190508181036000830152612dc881612a1a565b9050919050565b60006020820190508181036000830152612de881612a3d565b9050919050565b60006020820190508181036000830152612e0881612a60565b9050919050565b60006020820190508181036000830152612e2881612a83565b9050919050565b6000602082019050612e446000830184612aa6565b92915050565b6000612e54612e65565b9050612e608282613086565b919050565b6000604051905090565b600067ffffffffffffffff821115612e8a57612e896131c8565b5b612e93826131f7565b9050602081019050919050565b600081519050919050565b600081519050919050565b600082825260208201905092915050565b600082825260208201905092915050565b600081905092915050565b6000612eee82613008565b9150612ef983613008565b9250827fffffffffffffffffffffffffffffffffffffffffffffffffffffffffffffffff03821115612f2e57612f2d61313b565b5b828201905092915050565b6000612f4482613008565b9150612f4f83613008565b925082612f5f57612f5e61316a565b5b828204905092915050565b6000612f7582613008565b9150612f8083613008565b925082821015612f9357612f9261313b565b5b828203905092915050565b6000612fa982612fe8565b9050919050565b60008115159050919050565b60007fffffffff0000000000000000000000000000000000000000000000000000000082169050919050565b600073ffffffffffffffffffffffffffffffffffffffff82169050919050565b6000819050919050565b82818337600083830152505050565b60005b8381101561303f578082015181840152602081019050613024565b8381111561304e576000848401525b50505050565b6000600282049050600182168061306c57607f821691505b602082108114156130805761307f613199565b5b50919050565b61308f826131f7565b810181811067ffffffffffffffff821117156130ae576130ad6131c8565b5b80604052505050565b60006130c282613008565b91507fffffffffffffffffffffffffffffffffffffffffffffffffffffffffffffffff8214156130f5576130f461313b565b5b600182019050919050565b6000819050919050565b600061311582613008565b915061312083613008565b9250826131305761312f61316a565b5b828206905092915050565b7f4e487b7100000000000000000000000000000000000000000000000000000000600052601160045260246000fd5b7f4e487b7100000000000000000000000000000000000000000000000000000000600052601260045260246000fd5b7f4e487b7100000000000000000000000000000000000000000000000000000000600052602260045260246000fd5b7f4e487b7100000000000000000000000000000000000000000000000000000000600052604160045260246000fd5b6000601f19601f8301169050919050565b7f455243373231456e756d657261626c653a206f776e657220696e646578206f7560008201527f74206f6620626f756e6473000000000000000000000000000000000000000000602082015250565b7f4552433732313a207472616e7366657220746f206e6f6e20455243373231526560008201527f63656976657220696d706c656d656e7465720000000000000000000000000000602082015250565b7f4f776e61626c653a206e6577206f776e657220697320746865207a65726f206160008201527f6464726573730000000000000000000000000000000000000000000000000000602082015250565b7f4552433732313a207472616e736665722066726f6d20696e636f72726563742060008201527f6f776e6572000000000000000000000000000000000000000000000000000000602082015250565b7f4552433732313a20746f6b656e20616c7265616479206d696e74656400000000600082015250565b7f68747470733a2f2f6c6f63616c686f73743a333033302f6765746e667464617460008201527f613f69643d000000000000000000000000000000000000000000000000000000602082015250565b7f4552433732313a207472616e7366657220746f20746865207a65726f2061646460008201527f7265737300000000000000000000000000000000000000000000000000000000602082015250565b7f4552433732313a20617070726f766520746f2063616c6c657200000000000000600082015250565b7f4552433732313a2061646472657373207a65726f206973206e6f74206120766160008201527f6c6964206f776e65720000000000000000000000000000000000000000000000602082015250565b7f45524337323155524953746f726167653a2055524920736574206f66206e6f6e60008201527f6578697374656e7420746f6b656e000000000000000000000000000000000000602082015250565b7f4552433732313a20617070726f76652063616c6c6572206973206e6f7420746f60008201527f6b656e206f776e6572206e6f7220617070726f76656420666f7220616c6c0000602082015250565b7f4552433732313a206d696e7420746f20746865207a65726f2061646472657373600082015250565b7f4f776e61626c653a2063616c6c6572206973206e6f7420746865206f776e6572600082015250565b7f4552433732313a20696e76616c696420746f6b656e2049440000000000000000600082015250565b7f4552433732313a20617070726f76616c20746f2063757272656e74206f776e6560008201527f7200000000000000000000000000000000000000000000000000000000000000602082015250565b7f455243373231456e756d657261626c653a20676c6f62616c20696e646578206f60008201527f7574206f6620626f756e64730000000000000000000000000000000000000000602082015250565b7f4552433732313a2063616c6c6572206973206e6f7420746f6b656e206f776e6560008201527f72206e6f7220617070726f766564000000000000000000000000000000000000602082015250565b61369281612f9e565b811461369d57600080fd5b50565b6136a981612fb0565b81146136b457600080fd5b50565b6136c081612fbc565b81146136cb57600080fd5b50565b6136d781613008565b81146136e257600080fd5b5056fe416e204e465420772f20494420257320686173206265656e206d696e74656420746f202573a2646970667358221220fe4eeadc25a78f1045c1507be2b24d9a6dbd7df42bc81cc913f41cb07d5dcb7d64736f6c63430008010033",
  "linkReferences": {},
  "deployedLinkReferences": {}
}